{
  "contractName": "DEMO",
  "abi": [
    {
      "inputs": [],
      "stateMutability": "nonpayable",
      "type": "constructor"
    },
    {
      "anonymous": false,
      "inputs": [
        {
          "indexed": true,
          "internalType": "address",
          "name": "owner",
          "type": "address"
        },
        {
          "indexed": true,
          "internalType": "address",
          "name": "approved",
          "type": "address"
        },
        {
          "indexed": true,
          "internalType": "uint256",
          "name": "tokenId",
          "type": "uint256"
        }
      ],
      "name": "Approval",
      "type": "event"
    },
    {
      "anonymous": false,
      "inputs": [
        {
          "indexed": true,
          "internalType": "address",
          "name": "owner",
          "type": "address"
        },
        {
          "indexed": true,
          "internalType": "address",
          "name": "operator",
          "type": "address"
        },
        {
          "indexed": false,
          "internalType": "bool",
          "name": "approved",
          "type": "bool"
        }
      ],
      "name": "ApprovalForAll",
      "type": "event"
    },
    {
      "anonymous": false,
      "inputs": [
        {
          "indexed": true,
          "internalType": "address",
          "name": "previousOwner",
          "type": "address"
        },
        {
          "indexed": true,
          "internalType": "address",
          "name": "newOwner",
          "type": "address"
        }
      ],
      "name": "OwnershipTransferred",
      "type": "event"
    },
    {
      "anonymous": false,
      "inputs": [
        {
          "indexed": false,
          "internalType": "address",
          "name": "account",
          "type": "address"
        }
      ],
      "name": "Paused",
      "type": "event"
    },
    {
      "anonymous": false,
      "inputs": [
        {
          "indexed": true,
          "internalType": "address",
          "name": "from",
          "type": "address"
        },
        {
          "indexed": true,
          "internalType": "address",
          "name": "to",
          "type": "address"
        },
        {
          "indexed": true,
          "internalType": "uint256",
          "name": "tokenId",
          "type": "uint256"
        }
      ],
      "name": "Transfer",
      "type": "event"
    },
    {
      "anonymous": false,
      "inputs": [
        {
          "indexed": false,
          "internalType": "address",
          "name": "account",
          "type": "address"
        }
      ],
      "name": "Unpaused",
      "type": "event"
    },
    {
      "inputs": [
        {
          "internalType": "address",
          "name": "to",
          "type": "address"
        },
        {
          "internalType": "uint256",
          "name": "tokenId",
          "type": "uint256"
        }
      ],
      "name": "approve",
      "outputs": [],
      "stateMutability": "nonpayable",
      "type": "function"
    },
    {
      "inputs": [
        {
          "internalType": "address",
          "name": "owner",
          "type": "address"
        }
      ],
      "name": "balanceOf",
      "outputs": [
        {
          "internalType": "uint256",
          "name": "",
          "type": "uint256"
        }
      ],
      "stateMutability": "view",
      "type": "function",
      "constant": true
    },
    {
      "inputs": [
        {
          "internalType": "uint256",
          "name": "tokenId",
          "type": "uint256"
        }
      ],
      "name": "burn",
      "outputs": [],
      "stateMutability": "nonpayable",
      "type": "function"
    },
    {
      "inputs": [
        {
          "internalType": "uint256",
          "name": "tokenId",
          "type": "uint256"
        }
      ],
      "name": "getApproved",
      "outputs": [
        {
          "internalType": "address",
          "name": "",
          "type": "address"
        }
      ],
      "stateMutability": "view",
      "type": "function",
      "constant": true
    },
    {
      "inputs": [
        {
          "internalType": "address",
          "name": "owner",
          "type": "address"
        },
        {
          "internalType": "address",
          "name": "operator",
          "type": "address"
        }
      ],
      "name": "isApprovedForAll",
      "outputs": [
        {
          "internalType": "bool",
          "name": "",
          "type": "bool"
        }
      ],
      "stateMutability": "view",
      "type": "function",
      "constant": true
    },
    {
      "inputs": [],
      "name": "name",
      "outputs": [
        {
          "internalType": "string",
          "name": "",
          "type": "string"
        }
      ],
      "stateMutability": "view",
      "type": "function",
      "constant": true
    },
    {
      "inputs": [],
      "name": "owner",
      "outputs": [
        {
          "internalType": "address",
          "name": "",
          "type": "address"
        }
      ],
      "stateMutability": "view",
      "type": "function",
      "constant": true
    },
    {
      "inputs": [
        {
          "internalType": "uint256",
          "name": "tokenId",
          "type": "uint256"
        }
      ],
      "name": "ownerOf",
      "outputs": [
        {
          "internalType": "address",
          "name": "",
          "type": "address"
        }
      ],
      "stateMutability": "view",
      "type": "function",
      "constant": true
    },
    {
      "inputs": [],
      "name": "paused",
      "outputs": [
        {
          "internalType": "bool",
          "name": "",
          "type": "bool"
        }
      ],
      "stateMutability": "view",
      "type": "function",
      "constant": true
    },
    {
      "inputs": [],
      "name": "renounceOwnership",
      "outputs": [],
      "stateMutability": "nonpayable",
      "type": "function"
    },
    {
      "inputs": [
        {
          "internalType": "address",
          "name": "from",
          "type": "address"
        },
        {
          "internalType": "address",
          "name": "to",
          "type": "address"
        },
        {
          "internalType": "uint256",
          "name": "tokenId",
          "type": "uint256"
        }
      ],
      "name": "safeTransferFrom",
      "outputs": [],
      "stateMutability": "nonpayable",
      "type": "function"
    },
    {
      "inputs": [
        {
          "internalType": "address",
          "name": "from",
          "type": "address"
        },
        {
          "internalType": "address",
          "name": "to",
          "type": "address"
        },
        {
          "internalType": "uint256",
          "name": "tokenId",
          "type": "uint256"
        },
        {
          "internalType": "bytes",
          "name": "data",
          "type": "bytes"
        }
      ],
      "name": "safeTransferFrom",
      "outputs": [],
      "stateMutability": "nonpayable",
      "type": "function"
    },
    {
      "inputs": [
        {
          "internalType": "address",
          "name": "operator",
          "type": "address"
        },
        {
          "internalType": "bool",
          "name": "approved",
          "type": "bool"
        }
      ],
      "name": "setApprovalForAll",
      "outputs": [],
      "stateMutability": "nonpayable",
      "type": "function"
    },
    {
      "inputs": [
        {
          "internalType": "bytes4",
          "name": "interfaceId",
          "type": "bytes4"
        }
      ],
      "name": "supportsInterface",
      "outputs": [
        {
          "internalType": "bool",
          "name": "",
          "type": "bool"
        }
      ],
      "stateMutability": "view",
      "type": "function",
      "constant": true
    },
    {
      "inputs": [],
      "name": "symbol",
      "outputs": [
        {
          "internalType": "string",
          "name": "",
          "type": "string"
        }
      ],
      "stateMutability": "view",
      "type": "function",
      "constant": true
    },
    {
      "inputs": [
        {
          "internalType": "address",
          "name": "from",
          "type": "address"
        },
        {
          "internalType": "address",
          "name": "to",
          "type": "address"
        },
        {
          "internalType": "uint256",
          "name": "tokenId",
          "type": "uint256"
        }
      ],
      "name": "transferFrom",
      "outputs": [],
      "stateMutability": "nonpayable",
      "type": "function"
    },
    {
      "inputs": [
        {
          "internalType": "address",
          "name": "newOwner",
          "type": "address"
        }
      ],
      "name": "transferOwnership",
      "outputs": [],
      "stateMutability": "nonpayable",
      "type": "function"
    },
    {
      "inputs": [],
      "name": "pause",
      "outputs": [],
      "stateMutability": "nonpayable",
      "type": "function"
    },
    {
      "inputs": [],
      "name": "unpause",
      "outputs": [],
      "stateMutability": "nonpayable",
      "type": "function"
    },
    {
      "inputs": [
        {
          "internalType": "address",
          "name": "to",
          "type": "address"
        },
        {
          "internalType": "uint256",
          "name": "tokenId",
          "type": "uint256"
        },
        {
          "internalType": "string",
          "name": "ipfsHash",
          "type": "string"
        }
      ],
      "name": "safeMint",
      "outputs": [],
      "stateMutability": "nonpayable",
      "type": "function"
    },
    {
      "inputs": [
        {
          "internalType": "uint256",
          "name": "tokenId",
          "type": "uint256"
        }
      ],
      "name": "tokenURI",
      "outputs": [
        {
          "internalType": "string",
          "name": "",
          "type": "string"
        }
      ],
      "stateMutability": "view",
      "type": "function",
      "constant": true
    }
  ],
  "bytecode": "0x60806040526040518060600160405280602281526020016200364060229139600890816200002e919062000458565b503480156200003c57600080fd5b506040518060400160405280600781526020017f44454d4f4e4654000000000000000000000000000000000000000000000000008152506040518060400160405280600481526020017f444e4654000000000000000000000000000000000000000000000000000000008152508160009081620000ba919062000458565b508060019081620000cc919062000458565b5050506000600660006101000a81548160ff0219169083151502179055506200010a620000fe6200011060201b60201c565b6200011860201b60201c565b6200053f565b600033905090565b6000600660019054906101000a900473ffffffffffffffffffffffffffffffffffffffff16905081600660016101000a81548173ffffffffffffffffffffffffffffffffffffffff021916908373ffffffffffffffffffffffffffffffffffffffff1602179055508173ffffffffffffffffffffffffffffffffffffffff168173ffffffffffffffffffffffffffffffffffffffff167f8be0079c531659141344cd1fd0a4f28419497f9722a3daafe3b4186f6b6457e060405160405180910390a35050565b600081519050919050565b7f4e487b7100000000000000000000000000000000000000000000000000000000600052604160045260246000fd5b7f4e487b7100000000000000000000000000000000000000000000000000000000600052602260045260246000fd5b600060028204905060018216806200026057607f821691505b60208210810362000276576200027562000218565b5b50919050565b60008190508160005260206000209050919050565b60006020601f8301049050919050565b600082821b905092915050565b600060088302620002e07fffffffffffffffffffffffffffffffffffffffffffffffffffffffffffffffff82620002a1565b620002ec8683620002a1565b95508019841693508086168417925050509392505050565b6000819050919050565b6000819050919050565b600062000339620003336200032d8462000304565b6200030e565b62000304565b9050919050565b6000819050919050565b620003558362000318565b6200036d620003648262000340565b848454620002ae565b825550505050565b600090565b6200038462000375565b620003918184846200034a565b505050565b5b81811015620003b957620003ad6000826200037a565b60018101905062000397565b5050565b601f8211156200040857620003d2816200027c565b620003dd8462000291565b81016020851015620003ed578190505b62000405620003fc8562000291565b83018262000396565b50505b505050565b600082821c905092915050565b60006200042d600019846008026200040d565b1980831691505092915050565b60006200044883836200041a565b9150826002028217905092915050565b6200046382620001de565b67ffffffffffffffff8111156200047f576200047e620001e9565b5b6200048b825462000247565b62000498828285620003bd565b600060209050601f831160018114620004d05760008415620004bb578287015190505b620004c785826200043a565b86555062000537565b601f198416620004e0866200027c565b60005b828110156200050a57848901518255600182019150602085019450602081019050620004e3565b868310156200052a578489015162000526601f8916826200041a565b8355505b6001600288020188555050505b505050505050565b6130f1806200054f6000396000f3fe608060405234801561001057600080fd5b50600436106101375760003560e01c806370a08231116100b8578063a22cb4651161007c578063a22cb46514610302578063b88d4fde1461031e578063c87b56dd1461033a578063cd279c7c1461036a578063e985e9c514610386578063f2fde38b146103b657610137565b806370a0823114610282578063715018a6146102b25780638456cb59146102bc5780638da5cb5b146102c657806395d89b41146102e457610137565b80633f4ba83a116100ff5780633f4ba83a146101f257806342842e0e146101fc57806342966c68146102185780635c975abb146102345780636352211e1461025257610137565b806301ffc9a71461013c57806306fdde031461016c578063081812fc1461018a578063095ea7b3146101ba57806323b872dd146101d6575b600080fd5b61015660048036038101906101519190611d11565b6103d2565b6040516101639190611d59565b60405180910390f35b6101746104b4565b6040516101819190611e04565b60405180910390f35b6101a4600480360381019061019f9190611e5c565b610546565b6040516101b19190611eca565b60405180910390f35b6101d460048036038101906101cf9190611f11565b61058c565b005b6101f060048036038101906101eb9190611f51565b6106a3565b005b6101fa610703565b005b61021660048036038101906102119190611f51565b610715565b005b610232600480360381019061022d9190611e5c565b610735565b005b61023c610791565b6040516102499190611d59565b60405180910390f35b61026c60048036038101906102679190611e5c565b6107a8565b6040516102799190611eca565b60405180910390f35b61029c60048036038101906102979190611fa4565b61082e565b6040516102a99190611fe0565b60405180910390f35b6102ba6108e5565b005b6102c46108f9565b005b6102ce61090b565b6040516102db9190611eca565b60405180910390f35b6102ec610935565b6040516102f99190611e04565b60405180910390f35b61031c60048036038101906103179190612027565b6109c7565b005b6103386004803603810190610333919061219c565b6109dd565b005b610354600480360381019061034f9190611e5c565b610a3f565b6040516103619190611e04565b60405180910390f35b610384600480360381019061037f91906122c0565b610b54565b005b6103a0600480360381019061039b919061232f565b610b75565b6040516103ad9190611d59565b60405180910390f35b6103d060048036038101906103cb9190611fa4565b610c09565b005b60007f80ac58cd000000000000000000000000000000000000000000000000000000007bffffffffffffffffffffffffffffffffffffffffffffffffffffffff1916827bffffffffffffffffffffffffffffffffffffffffffffffffffffffff1916148061049d57507f5b5e139f000000000000000000000000000000000000000000000000000000007bffffffffffffffffffffffffffffffffffffffffffffffffffffffff1916827bffffffffffffffffffffffffffffffffffffffffffffffffffffffff1916145b806104ad57506104ac82610c8c565b5b9050919050565b6060600080546104c39061239e565b80601f01602080910402602001604051908101604052809291908181526020018280546104ef9061239e565b801561053c5780601f106105115761010080835404028352916020019161053c565b820191906000526020600020905b81548152906001019060200180831161051f57829003601f168201915b5050505050905090565b600061055182610cf6565b6004600083815260200190815260200160002060009054906101000a900473ffffffffffffffffffffffffffffffffffffffff169050919050565b6000610597826107a8565b90508073ffffffffffffffffffffffffffffffffffffffff168373ffffffffffffffffffffffffffffffffffffffff1603610607576040517f08c379a00000000000000000000000000000000000000000000000000000000081526004016105fe90612441565b60405180910390fd5b8073ffffffffffffffffffffffffffffffffffffffff16610626610d41565b73ffffffffffffffffffffffffffffffffffffffff16148061065557506106548161064f610d41565b610b75565b5b610694576040517f08c379a000000000000000000000000000000000000000000000000000000000815260040161068b906124d3565b60405180910390fd5b61069e8383610d49565b505050565b6106b46106ae610d41565b82610e02565b6106f3576040517f08c379a00000000000000000000000000000000000000000000000000000000081526004016106ea90612565565b60405180910390fd5b6106fe838383610e97565b505050565b61070b611190565b61071361120e565b565b610730838383604051806020016040528060008152506109dd565b505050565b610746610740610d41565b82610e02565b610785576040517f08c379a000000000000000000000000000000000000000000000000000000000815260040161077c90612565565b60405180910390fd5b61078e81611271565b50565b6000600660009054906101000a900460ff16905090565b6000806107b4836113bf565b9050600073ffffffffffffffffffffffffffffffffffffffff168173ffffffffffffffffffffffffffffffffffffffff1603610825576040517f08c379a000000000000000000000000000000000000000000000000000000000815260040161081c906125d1565b60405180910390fd5b80915050919050565b60008073ffffffffffffffffffffffffffffffffffffffff168273ffffffffffffffffffffffffffffffffffffffff160361089e576040517f08c379a000000000000000000000000000000000000000000000000000000000815260040161089590612663565b60405180910390fd5b600360008373ffffffffffffffffffffffffffffffffffffffff1673ffffffffffffffffffffffffffffffffffffffff168152602001908152602001600020549050919050565b6108ed611190565b6108f760006113fc565b565b610901611190565b6109096114c2565b565b6000600660019054906101000a900473ffffffffffffffffffffffffffffffffffffffff16905090565b6060600180546109449061239e565b80601f01602080910402602001604051908101604052809291908181526020018280546109709061239e565b80156109bd5780601f10610992576101008083540402835291602001916109bd565b820191906000526020600020905b8154815290600101906020018083116109a057829003601f168201915b5050505050905090565b6109d96109d2610d41565b8383611525565b5050565b6109ee6109e8610d41565b83610e02565b610a2d576040517f08c379a0000000000000000000000000000000000000000000000000000000008152600401610a2490612565565b60405180910390fd5b610a3984848484611691565b50505050565b6060610a4a826116ed565b610a89576040517f08c379a0000000000000000000000000000000000000000000000000000000008152600401610a80906126f5565b60405180910390fd5b6000600760008481526020019081526020016000208054610aa99061239e565b80601f0160208091040260200160405190810160405280929190818152602001828054610ad59061239e565b8015610b225780601f10610af757610100808354040283529160200191610b22565b820191906000526020600020905b815481529060010190602001808311610b0557829003601f168201915b50505050509050600881604051602001610b3d9291906127e9565b604051602081830303815290604052915050919050565b610b5c611190565b610b66838361172e565b610b70828261174c565b505050565b6000600560008473ffffffffffffffffffffffffffffffffffffffff1673ffffffffffffffffffffffffffffffffffffffff16815260200190815260200160002060008373ffffffffffffffffffffffffffffffffffffffff1673ffffffffffffffffffffffffffffffffffffffff16815260200190815260200160002060009054906101000a900460ff16905092915050565b610c11611190565b600073ffffffffffffffffffffffffffffffffffffffff168173ffffffffffffffffffffffffffffffffffffffff1603610c80576040517f08c379a0000000000000000000000000000000000000000000000000000000008152600401610c779061287f565b60405180910390fd5b610c89816113fc565b50565b60007f01ffc9a7000000000000000000000000000000000000000000000000000000007bffffffffffffffffffffffffffffffffffffffffffffffffffffffff1916827bffffffffffffffffffffffffffffffffffffffffffffffffffffffff1916149050919050565b610cff816116ed565b610d3e576040517f08c379a0000000000000000000000000000000000000000000000000000000008152600401610d35906125d1565b60405180910390fd5b50565b600033905090565b816004600083815260200190815260200160002060006101000a81548173ffffffffffffffffffffffffffffffffffffffff021916908373ffffffffffffffffffffffffffffffffffffffff160217905550808273ffffffffffffffffffffffffffffffffffffffff16610dbc836107a8565b73ffffffffffffffffffffffffffffffffffffffff167f8c5be1e5ebec7d5bd14f71427d1e84f3dd0314c0f7b2291e5b200ac8c7c3b92560405160405180910390a45050565b600080610e0e836107a8565b90508073ffffffffffffffffffffffffffffffffffffffff168473ffffffffffffffffffffffffffffffffffffffff161480610e505750610e4f8185610b75565b5b80610e8e57508373ffffffffffffffffffffffffffffffffffffffff16610e7684610546565b73ffffffffffffffffffffffffffffffffffffffff16145b91505092915050565b8273ffffffffffffffffffffffffffffffffffffffff16610eb7826107a8565b73ffffffffffffffffffffffffffffffffffffffff1614610f0d576040517f08c379a0000000000000000000000000000000000000000000000000000000008152600401610f0490612911565b60405180910390fd5b600073ffffffffffffffffffffffffffffffffffffffff168273ffffffffffffffffffffffffffffffffffffffff1603610f7c576040517f08c379a0000000000000000000000000000000000000000000000000000000008152600401610f73906129a3565b60405180910390fd5b610f8983838360016117ca565b8273ffffffffffffffffffffffffffffffffffffffff16610fa9826107a8565b73ffffffffffffffffffffffffffffffffffffffff1614610fff576040517f08c379a0000000000000000000000000000000000000000000000000000000008152600401610ff690612911565b60405180910390fd5b6004600082815260200190815260200160002060006101000a81549073ffffffffffffffffffffffffffffffffffffffff02191690556001600360008573ffffffffffffffffffffffffffffffffffffffff1673ffffffffffffffffffffffffffffffffffffffff168152602001908152602001600020600082825403925050819055506001600360008473ffffffffffffffffffffffffffffffffffffffff1673ffffffffffffffffffffffffffffffffffffffff16815260200190815260200160002060008282540192505081905550816002600083815260200190815260200160002060006101000a81548173ffffffffffffffffffffffffffffffffffffffff021916908373ffffffffffffffffffffffffffffffffffffffff160217905550808273ffffffffffffffffffffffffffffffffffffffff168473ffffffffffffffffffffffffffffffffffffffff167fddf252ad1be2c89b69c2b068fc378daa952ba7f163c4a11628f55a4df523b3ef60405160405180910390a461118b83838360016117e4565b505050565b611198610d41565b73ffffffffffffffffffffffffffffffffffffffff166111b661090b565b73ffffffffffffffffffffffffffffffffffffffff161461120c576040517f08c379a000000000000000000000000000000000000000000000000000000000815260040161120390612a0f565b60405180910390fd5b565b6112166117ea565b6000600660006101000a81548160ff0219169083151502179055507f5db9ee0a495bf2e6ff9c91a7834c1ba4fdd244a5e8aa4e537bd38aeae4b073aa61125a610d41565b6040516112679190611eca565b60405180910390a1565b600061127c826107a8565b905061128c8160008460016117ca565b611295826107a8565b90506004600083815260200190815260200160002060006101000a81549073ffffffffffffffffffffffffffffffffffffffff02191690556001600360008373ffffffffffffffffffffffffffffffffffffffff1673ffffffffffffffffffffffffffffffffffffffff168152602001908152602001600020600082825403925050819055506002600083815260200190815260200160002060006101000a81549073ffffffffffffffffffffffffffffffffffffffff021916905581600073ffffffffffffffffffffffffffffffffffffffff168273ffffffffffffffffffffffffffffffffffffffff167fddf252ad1be2c89b69c2b068fc378daa952ba7f163c4a11628f55a4df523b3ef60405160405180910390a46113bb8160008460016117e4565b5050565b60006002600083815260200190815260200160002060009054906101000a900473ffffffffffffffffffffffffffffffffffffffff169050919050565b6000600660019054906101000a900473ffffffffffffffffffffffffffffffffffffffff16905081600660016101000a81548173ffffffffffffffffffffffffffffffffffffffff021916908373ffffffffffffffffffffffffffffffffffffffff1602179055508173ffffffffffffffffffffffffffffffffffffffff168173ffffffffffffffffffffffffffffffffffffffff167f8be0079c531659141344cd1fd0a4f28419497f9722a3daafe3b4186f6b6457e060405160405180910390a35050565b6114ca611833565b6001600660006101000a81548160ff0219169083151502179055507f62e78cea01bee320cd4e420270b5ea74000d11b0c9f74754ebdbfc544b05a25861150e610d41565b60405161151b9190611eca565b60405180910390a1565b8173ffffffffffffffffffffffffffffffffffffffff168373ffffffffffffffffffffffffffffffffffffffff1603611593576040517f08c379a000000000000000000000000000000000000000000000000000000000815260040161158a90612a7b565b60405180910390fd5b80600560008573ffffffffffffffffffffffffffffffffffffffff1673ffffffffffffffffffffffffffffffffffffffff16815260200190815260200160002060008473ffffffffffffffffffffffffffffffffffffffff1673ffffffffffffffffffffffffffffffffffffffff16815260200190815260200160002060006101000a81548160ff0219169083151502179055508173ffffffffffffffffffffffffffffffffffffffff168373ffffffffffffffffffffffffffffffffffffffff167f17307eab39ab6107e8899845ad3d59bd9653f200f220920489ca2b5937696c31836040516116849190611d59565b60405180910390a3505050565b61169c848484610e97565b6116a88484848461187d565b6116e7576040517f08c379a00000000000000000000000000000000000000000000000000000000081526004016116de90612b0d565b60405180910390fd5b50505050565b60008073ffffffffffffffffffffffffffffffffffffffff1661170f836113bf565b73ffffffffffffffffffffffffffffffffffffffff1614159050919050565b611748828260405180602001604052806000815250611a04565b5050565b611755826116ed565b611794576040517f08c379a000000000000000000000000000000000000000000000000000000000815260040161178b90612b9f565b60405180910390fd5b60008190506000815111156117c557816007600085815260200190815260200160002090816117c39190612d56565b505b505050565b6117d2611833565b6117de84848484611a5f565b50505050565b50505050565b6117f2610791565b611831576040517f08c379a000000000000000000000000000000000000000000000000000000000815260040161182890612e74565b60405180910390fd5b565b61183b610791565b1561187b576040517f08c379a000000000000000000000000000000000000000000000000000000000815260040161187290612ee0565b60405180910390fd5b565b600061189e8473ffffffffffffffffffffffffffffffffffffffff16611a65565b156119f7578373ffffffffffffffffffffffffffffffffffffffff1663150b7a026118c7610d41565b8786866040518563ffffffff1660e01b81526004016118e99493929190612f55565b6020604051808303816000875af192505050801561192557506040513d601f19601f820116820180604052508101906119229190612fb6565b60015b6119a7573d8060008114611955576040519150601f19603f3d011682016040523d82523d6000602084013e61195a565b606091505b50600081510361199f576040517f08c379a000000000000000000000000000000000000000000000000000000000815260040161199690612b0d565b60405180910390fd5b805181602001fd5b63150b7a0260e01b7bffffffffffffffffffffffffffffffffffffffffffffffffffffffff1916817bffffffffffffffffffffffffffffffffffffffffffffffffffffffff1916149150506119fc565b600190505b949350505050565b611a0e8383611a88565b611a1b600084848461187d565b611a5a576040517f08c379a0000000000000000000000000000000000000000000000000000000008152600401611a5190612b0d565b60405180910390fd5b505050565b50505050565b6000808273ffffffffffffffffffffffffffffffffffffffff163b119050919050565b600073ffffffffffffffffffffffffffffffffffffffff168273ffffffffffffffffffffffffffffffffffffffff1603611af7576040517f08c379a0000000000000000000000000000000000000000000000000000000008152600401611aee9061302f565b60405180910390fd5b611b00816116ed565b15611b40576040517f08c379a0000000000000000000000000000000000000000000000000000000008152600401611b379061309b565b60405180910390fd5b611b4e6000838360016117ca565b611b57816116ed565b15611b97576040517f08c379a0000000000000000000000000000000000000000000000000000000008152600401611b8e9061309b565b60405180910390fd5b6001600360008473ffffffffffffffffffffffffffffffffffffffff1673ffffffffffffffffffffffffffffffffffffffff16815260200190815260200160002060008282540192505081905550816002600083815260200190815260200160002060006101000a81548173ffffffffffffffffffffffffffffffffffffffff021916908373ffffffffffffffffffffffffffffffffffffffff160217905550808273ffffffffffffffffffffffffffffffffffffffff16600073ffffffffffffffffffffffffffffffffffffffff167fddf252ad1be2c89b69c2b068fc378daa952ba7f163c4a11628f55a4df523b3ef60405160405180910390a4611ca16000838360016117e4565b5050565b6000604051905090565b600080fd5b600080fd5b60007fffffffff0000000000000000000000000000000000000000000000000000000082169050919050565b611cee81611cb9565b8114611cf957600080fd5b50565b600081359050611d0b81611ce5565b92915050565b600060208284031215611d2757611d26611caf565b5b6000611d3584828501611cfc565b91505092915050565b60008115159050919050565b611d5381611d3e565b82525050565b6000602082019050611d6e6000830184611d4a565b92915050565b600081519050919050565b600082825260208201905092915050565b60005b83811015611dae578082015181840152602081019050611d93565b60008484015250505050565b6000601f19601f8301169050919050565b6000611dd682611d74565b611de08185611d7f565b9350611df0818560208601611d90565b611df981611dba565b840191505092915050565b60006020820190508181036000830152611e1e8184611dcb565b905092915050565b6000819050919050565b611e3981611e26565b8114611e4457600080fd5b50565b600081359050611e5681611e30565b92915050565b600060208284031215611e7257611e71611caf565b5b6000611e8084828501611e47565b91505092915050565b600073ffffffffffffffffffffffffffffffffffffffff82169050919050565b6000611eb482611e89565b9050919050565b611ec481611ea9565b82525050565b6000602082019050611edf6000830184611ebb565b92915050565b611eee81611ea9565b8114611ef957600080fd5b50565b600081359050611f0b81611ee5565b92915050565b60008060408385031215611f2857611f27611caf565b5b6000611f3685828601611efc565b9250506020611f4785828601611e47565b9150509250929050565b600080600060608486031215611f6a57611f69611caf565b5b6000611f7886828701611efc565b9350506020611f8986828701611efc565b9250506040611f9a86828701611e47565b9150509250925092565b600060208284031215611fba57611fb9611caf565b5b6000611fc884828501611efc565b91505092915050565b611fda81611e26565b82525050565b6000602082019050611ff56000830184611fd1565b92915050565b61200481611d3e565b811461200f57600080fd5b50565b60008135905061202181611ffb565b92915050565b6000806040838503121561203e5761203d611caf565b5b600061204c85828601611efc565b925050602061205d85828601612012565b9150509250929050565b600080fd5b600080fd5b7f4e487b7100000000000000000000000000000000000000000000000000000000600052604160045260246000fd5b6120a982611dba565b810181811067ffffffffffffffff821117156120c8576120c7612071565b5b80604052505050565b60006120db611ca5565b90506120e782826120a0565b919050565b600067ffffffffffffffff82111561210757612106612071565b5b61211082611dba565b9050602081019050919050565b82818337600083830152505050565b600061213f61213a846120ec565b6120d1565b90508281526020810184848401111561215b5761215a61206c565b5b61216684828561211d565b509392505050565b600082601f83011261218357612182612067565b5b813561219384826020860161212c565b91505092915050565b600080600080608085870312156121b6576121b5611caf565b5b60006121c487828801611efc565b94505060206121d587828801611efc565b93505060406121e687828801611e47565b925050606085013567ffffffffffffffff81111561220757612206611cb4565b5b6122138782880161216e565b91505092959194509250565b600067ffffffffffffffff82111561223a57612239612071565b5b61224382611dba565b9050602081019050919050565b600061226361225e8461221f565b6120d1565b90508281526020810184848401111561227f5761227e61206c565b5b61228a84828561211d565b509392505050565b600082601f8301126122a7576122a6612067565b5b81356122b7848260208601612250565b91505092915050565b6000806000606084860312156122d9576122d8611caf565b5b60006122e786828701611efc565b93505060206122f886828701611e47565b925050604084013567ffffffffffffffff81111561231957612318611cb4565b5b61232586828701612292565b9150509250925092565b6000806040838503121561234657612345611caf565b5b600061235485828601611efc565b925050602061236585828601611efc565b9150509250929050565b7f4e487b7100000000000000000000000000000000000000000000000000000000600052602260045260246000fd5b600060028204905060018216806123b657607f821691505b6020821081036123c9576123c861236f565b5b50919050565b7f4552433732313a20617070726f76616c20746f2063757272656e74206f776e6560008201527f7200000000000000000000000000000000000000000000000000000000000000602082015250565b600061242b602183611d7f565b9150612436826123cf565b604082019050919050565b6000602082019050818103600083015261245a8161241e565b9050919050565b7f4552433732313a20617070726f76652063616c6c6572206973206e6f7420746f60008201527f6b656e206f776e6572206f7220617070726f76656420666f7220616c6c000000602082015250565b60006124bd603d83611d7f565b91506124c882612461565b604082019050919050565b600060208201905081810360008301526124ec816124b0565b9050919050565b7f4552433732313a2063616c6c6572206973206e6f7420746f6b656e206f776e6560008201527f72206f7220617070726f76656400000000000000000000000000000000000000602082015250565b600061254f602d83611d7f565b915061255a826124f3565b604082019050919050565b6000602082019050818103600083015261257e81612542565b9050919050565b7f4552433732313a20696e76616c696420746f6b656e2049440000000000000000600082015250565b60006125bb601883611d7f565b91506125c682612585565b602082019050919050565b600060208201905081810360008301526125ea816125ae565b9050919050565b7f4552433732313a2061646472657373207a65726f206973206e6f74206120766160008201527f6c6964206f776e65720000000000000000000000000000000000000000000000602082015250565b600061264d602983611d7f565b9150612658826125f1565b604082019050919050565b6000602082019050818103600083015261267c81612640565b9050919050565b7f4552433732314d657461646174613a2055524920717565727920666f72206e6f60008201527f6e6578697374656e7420746f6b656e0000000000000000000000000000000000602082015250565b60006126df602f83611d7f565b91506126ea82612683565b604082019050919050565b6000602082019050818103600083015261270e816126d2565b9050919050565b600081905092915050565b60008190508160005260206000209050919050565b600081546127428161239e565b61274c8186612715565b94506001821660008114612767576001811461277c576127af565b60ff19831686528115158202860193506127af565b61278585612720565b60005b838110156127a757815481890152600182019150602081019050612788565b838801955050505b50505092915050565b60006127c382611d74565b6127cd8185612715565b93506127dd818560208601611d90565b80840191505092915050565b60006127f58285612735565b915061280182846127b8565b91508190509392505050565b7f4f776e61626c653a206e6577206f776e657220697320746865207a65726f206160008201527f6464726573730000000000000000000000000000000000000000000000000000602082015250565b6000612869602683611d7f565b91506128748261280d565b604082019050919050565b600060208201905081810360008301526128988161285c565b9050919050565b7f4552433732313a207472616e736665722066726f6d20696e636f72726563742060008201527f6f776e6572000000000000000000000000000000000000000000000000000000602082015250565b60006128fb602583611d7f565b91506129068261289f565b604082019050919050565b6000602082019050818103600083015261292a816128ee565b9050919050565b7f4552433732313a207472616e7366657220746f20746865207a65726f2061646460008201527f7265737300000000000000000000000000000000000000000000000000000000602082015250565b600061298d602483611d7f565b915061299882612931565b604082019050919050565b600060208201905081810360008301526129bc81612980565b9050919050565b7f4f776e61626c653a2063616c6c6572206973206e6f7420746865206f776e6572600082015250565b60006129f9602083611d7f565b9150612a04826129c3565b602082019050919050565b60006020820190508181036000830152612a28816129ec565b9050919050565b7f4552433732313a20617070726f766520746f2063616c6c657200000000000000600082015250565b6000612a65601983611d7f565b9150612a7082612a2f565b602082019050919050565b60006020820190508181036000830152612a9481612a58565b9050919050565b7f4552433732313a207472616e7366657220746f206e6f6e20455243373231526560008201527f63656976657220696d706c656d656e7465720000000000000000000000000000602082015250565b6000612af7603283611d7f565b9150612b0282612a9b565b604082019050919050565b60006020820190508181036000830152612b2681612aea565b9050919050565b7f4552433732314d657461646174613a2055524920736574206f66206e6f6e657860008201527f697374656e7420746f6b656e0000000000000000000000000000000000000000602082015250565b6000612b89602c83611d7f565b9150612b9482612b2d565b604082019050919050565b60006020820190508181036000830152612bb881612b7c565b9050919050565b60006020601f8301049050919050565b600082821b905092915050565b600060088302612c0c7fffffffffffffffffffffffffffffffffffffffffffffffffffffffffffffffff82612bcf565b612c168683612bcf565b95508019841693508086168417925050509392505050565b6000819050919050565b6000612c53612c4e612c4984611e26565b612c2e565b611e26565b9050919050565b6000819050919050565b612c6d83612c38565b612c81612c7982612c5a565b848454612bdc565b825550505050565b600090565b612c96612c89565b612ca1818484612c64565b505050565b5b81811015612cc557612cba600082612c8e565b600181019050612ca7565b5050565b601f821115612d0a57612cdb81612720565b612ce484612bbf565b81016020851015612cf3578190505b612d07612cff85612bbf565b830182612ca6565b50505b505050565b600082821c905092915050565b6000612d2d60001984600802612d0f565b1980831691505092915050565b6000612d468383612d1c565b9150826002028217905092915050565b612d5f82611d74565b67ffffffffffffffff811115612d7857612d77612071565b5b612d82825461239e565b612d8d828285612cc9565b600060209050601f831160018114612dc05760008415612dae578287015190505b612db88582612d3a565b865550612e20565b601f198416612dce86612720565b60005b82811015612df657848901518255600182019150602085019450602081019050612dd1565b86831015612e135784890151612e0f601f891682612d1c565b8355505b6001600288020188555050505b505050505050565b7f5061757361626c653a206e6f7420706175736564000000000000000000000000600082015250565b6000612e5e601483611d7f565b9150612e6982612e28565b602082019050919050565b60006020820190508181036000830152612e8d81612e51565b9050919050565b7f5061757361626c653a2070617573656400000000000000000000000000000000600082015250565b6000612eca601083611d7f565b9150612ed582612e94565b602082019050919050565b60006020820190508181036000830152612ef981612ebd565b9050919050565b600081519050919050565b600082825260208201905092915050565b6000612f2782612f00565b612f318185612f0b565b9350612f41818560208601611d90565b612f4a81611dba565b840191505092915050565b6000608082019050612f6a6000830187611ebb565b612f776020830186611ebb565b612f846040830185611fd1565b8181036060830152612f968184612f1c565b905095945050505050565b600081519050612fb081611ce5565b92915050565b600060208284031215612fcc57612fcb611caf565b5b6000612fda84828501612fa1565b91505092915050565b7f4552433732313a206d696e7420746f20746865207a65726f2061646472657373600082015250565b6000613019602083611d7f565b915061302482612fe3565b602082019050919050565b600060208201905081810360008301526130488161300c565b9050919050565b7f4552433732313a20746f6b656e20616c7265616479206d696e74656400000000600082015250565b6000613085601c83611d7f565b91506130908261304f565b602082019050919050565b600060208201905081810360008301526130b481613078565b905091905056fea264697066735822122066a8ece50f14ec7c2bddd5076e42fa74eeb4cdb9b61e06e7ac2b524018b1477164736f6c6343000813003368747470733a2f2f676174657761792e70696e6174612e636c6f75642f697066732f",
  "immutableReferences": {},
  "source": "// SPDX-License-Identifier: MIT\r\npragma solidity ^0.8.9;\r\n\r\nimport \"@openzeppelin/contracts/token/ERC721/ERC721.sol\";\r\nimport \"@openzeppelin/contracts/security/Pausable.sol\";\r\nimport \"@openzeppelin/contracts/access/Ownable.sol\";\r\nimport \"@openzeppelin/contracts/token/ERC721/extensions/ERC721Burnable.sol\";\r\n\r\ncontract DEMO is ERC721, Pausable, Ownable, ERC721Burnable {\r\n    mapping(uint256 => string) private _tokenURIs;\r\n    string private _baseTokenURI=\"https://gateway.pinata.cloud/ipfs/\";\r\n\r\n    constructor() ERC721(\"DEMONFT\", \"DNFT\") {}\r\n\r\n    function _setTokenURI(uint256 _tokenId, string memory _tokenURI) internal virtual {\r\n        require(_exists(_tokenId), \"ERC721Metadata: URI set of nonexistent token\");\r\n        \r\n        bytes memory tempBytes = bytes(_tokenURI);\r\n        if(tempBytes.length > 0) _tokenURIs[_tokenId] = _tokenURI;\r\n    }\r\n\r\n    function pause() public onlyOwner {\r\n        _pause();\r\n    }\r\n\r\n    function unpause() public onlyOwner {\r\n        _unpause();\r\n    }\r\n\r\n    function safeMint(address to,uint256 tokenId, string memory ipfsHash) public onlyOwner {\r\n        _safeMint(to, tokenId);\r\n        _setTokenURI(tokenId, ipfsHash);\r\n    }\r\n\r\n       \r\n    /**\r\n     * @dev See {IERC721Metadata-tokenURI}.\r\n     */\r\n    function tokenURI(uint256 tokenId) public view override returns (string memory) {\r\n        require(_exists(tokenId), \"ERC721Metadata: URI query for nonexistent token\");\r\n\r\n        string memory _tokenURI = _tokenURIs[tokenId];    \r\n        return string(abi.encodePacked(_baseTokenURI, _tokenURI));\r\n    }\r\n\r\n    function _beforeTokenTransfer(address from, address to, uint256 tokenId, uint256 batchSize)\r\n        internal\r\n        whenNotPaused\r\n        override\r\n    {\r\n        super._beforeTokenTransfer(from, to, tokenId, batchSize);\r\n    }\r\n}",
  "sourcePath": "C:\\Users\\Rocky\\Desktop\\Basic Contracts\\ERC721_Backend_server\\contracts\\DEMO.sol",
  "compiler": {
    "name": "solc",
    "version": "0.8.19+commit.7dd6d404.Emscripten.clang"
  },
  "schemaVersion": "3.4.13",
  "updatedAt": "2023-05-02T04:26:38.267Z",
  "networkType": "ethereum",
  "devdoc": {
    "events": {
      "Approval(address,address,uint256)": {
        "details": "Emitted when `owner` enables `approved` to manage the `tokenId` token."
      },
      "ApprovalForAll(address,address,bool)": {
        "details": "Emitted when `owner` enables or disables (`approved`) `operator` to manage all of its assets."
      },
      "Paused(address)": {
        "details": "Emitted when the pause is triggered by `account`."
      },
      "Transfer(address,address,uint256)": {
        "details": "Emitted when `tokenId` token is transferred from `from` to `to`."
      },
      "Unpaused(address)": {
        "details": "Emitted when the pause is lifted by `account`."
      }
    },
    "kind": "dev",
    "methods": {
      "approve(address,uint256)": {
        "details": "See {IERC721-approve}."
      },
      "balanceOf(address)": {
        "details": "See {IERC721-balanceOf}."
      },
      "burn(uint256)": {
        "details": "Burns `tokenId`. See {ERC721-_burn}. Requirements: - The caller must own `tokenId` or be an approved operator."
      },
      "getApproved(uint256)": {
        "details": "See {IERC721-getApproved}."
      },
      "isApprovedForAll(address,address)": {
        "details": "See {IERC721-isApprovedForAll}."
      },
      "name()": {
        "details": "See {IERC721Metadata-name}."
      },
      "owner()": {
        "details": "Returns the address of the current owner."
      },
      "ownerOf(uint256)": {
        "details": "See {IERC721-ownerOf}."
      },
      "paused()": {
        "details": "Returns true if the contract is paused, and false otherwise."
      },
      "renounceOwnership()": {
        "details": "Leaves the contract without owner. It will not be possible to call `onlyOwner` functions anymore. Can only be called by the current owner. NOTE: Renouncing ownership will leave the contract without an owner, thereby removing any functionality that is only available to the owner."
      },
      "safeTransferFrom(address,address,uint256)": {
        "details": "See {IERC721-safeTransferFrom}."
      },
      "safeTransferFrom(address,address,uint256,bytes)": {
        "details": "See {IERC721-safeTransferFrom}."
      },
      "setApprovalForAll(address,bool)": {
        "details": "See {IERC721-setApprovalForAll}."
      },
      "supportsInterface(bytes4)": {
        "details": "See {IERC165-supportsInterface}."
      },
      "symbol()": {
        "details": "See {IERC721Metadata-symbol}."
      },
      "tokenURI(uint256)": {
        "details": "See {IERC721Metadata-tokenURI}."
      },
      "transferFrom(address,address,uint256)": {
        "details": "See {IERC721-transferFrom}."
      },
      "transferOwnership(address)": {
        "details": "Transfers ownership of the contract to a new account (`newOwner`). Can only be called by the current owner."
      }
    },
    "version": 1
  },
  "userdoc": {
    "kind": "user",
    "methods": {},
    "version": 1
  }
}